:020000040800F2
:10000000F806002089010008EF1500081514000803
:10001000ED15000865030008BF1800080000000087
:10002000000000000000000000000000171600089B
:1000300067030008000000001516000819160008E4
:10004000A3010008A3010008A3010008A301000800
:10005000A3010008A3010008690300086F0300085A
:10006000A3010008A3010008A3010008A3010008E0
:10007000A3010008A3010008A3010008A3010008D0
:10008000A3010008A3010008A3010008A3010008C0
:10009000A3010008A3010008A3010008A3010008B0
:1000A000A3010008A3010008A3010008A3010008A0
:1000B000A3010008A3010008A3010008A301000890
:1000C000A3010008A3010008A3010008A301000880
:1000D000A3010008A3010008A3010008A301000870
:1000E000A3010008A3010008A301000800F002F822
:1000F00000F03AF80AA090E8000C82448344AAF188
:100100000107DA4501D100F02FF8AFF2090EBAE885
:100110000F0013F0010F18BFFB1A43F0010318473B
:100120007818000098180000103A24BF78C878C1E9
:10013000FAD8520724BF30C830C144BF04680C60ED
:10014000704700000023002400250026103A28BF35
:1001500078C1FBD8520728BF30C148BF0B60704739
:100160001FB51FBD10B510BD00F058F81146FFF7C0
:10017000F7FF01F0B5FB00F076F803B4FFF7F2FFEC
:1001800003BC00F07DF8000009488047094800479B
:10019000FEE7FEE7FEE7FEE7FEE7FEE7FEE7FEE737
:1001A000FEE7FEE704480549054A064B7047000094
:1001B00085160008ED000008F8000020F806002071
:1001C000F8020020F80200204FF0000200B51346AC
:1001D00094469646203922BFA0E80C50A0E80C5067
:1001E000B1F12001BFF4F7AF090728BFA0E80C5018
:1001F00048BF0CC05DF804EB890028BF40F8042B11
:1002000008BF704748BF20F8022B11F0804F18BF7D
:1002100000F8012B7047704770477047754600F033
:100220002BF8AE4605006946534620F00700854688
:1002300018B020B5FFF7B6FFBDE820404FF000062C
:100240004FF000074FF000084FF0000B21F00701BE
:10025000AC46ACE8C009ACE8C009ACE8C009ACE801
:10026000C0098D46704710B50446AFF300802046A4
:10027000BDE81040FFF781BF0048704794000020A0
:1002800001491820ABBEFEE72600020070470000BF
:1002900070B5044600688168C943C90717D18168F1
:1002A00021F00101816000F02BFB05460AE000BF50
:1002B00000F026FB401B022804D920688068C04358
:1002C000C00706D020688068C043C007F0D0002077
:1002D00070BDA06A40F01000A062E06A40F001002A
:1002E000E062012070BD0000F8B5002604460096CB
:1002F00000688168C943C9072DD0816841F00101B8
:100300008160164816490068B0FBF1F000E0401E1D
:1003100000900028FBD100F0F3FA054616E000BF7C
:1003200000F0EEFA401B022810D920688068C04314
:10033000C0070BD0A06A40F01000A062E06A40F055
:100340000100E06284F824600120F8BD2068806824
:10035000C043C007E4D10020F8BD00001800002011
:1003600040420F00FEE77047012000F0C3B90220B1
:1003700000F0C0B9F8B50024009490F82420254678
:10038000012A12D0012280F824204A681F23072A5C
:100390000DD20668776B521E02EB820293409F4398
:1003A0000B6893401F43776319E00220F8BD06688D
:1003B0000D2A0AD2376BD21F02EB820293409F4371
:1003C0000B6893401F43376309E0F76A0D3A02EB6D
:1003D000820293409F430B6893401F43F7620A6871
:1003E000072306680A2A0AD3F7680A3A02EB420290
:1003F00093409F438B6893401F43F76008E0376941
:1004000002EB420293409F438B6893401F43376146
:100410000A68102A01D0112A20D1124B02689A4290
:1004200017D193681B0219D4936843F400039360B7
:100430000968102912D10C490C4A0968B1FBF2F184
:1004400001EB8101490000E0491E00910029FBD128
:1004500004E0816A41F020018162012480F8245087
:100460002046F8BD002401401800002040420F0043
:100470000068C06C704700002DE9F0414FF00007A4
:1004800004003D467ED0A06A002628B9E66284F8C2
:100490002460204600F07EF82046FFF7F9FEA16AAE
:1004A000C90600D420B1A06A40F01000A06269E043
:1004B000A16A21F4885141F00201A1626268E169F8
:1004C000237B0A4347EA43010A43A1684FF480773C
:1004D000B94209D0012907D05FF0000194F814C097
:1004E000BCF1010F02D00AE03946F7E7F3B1A36A85
:1004F00043F02003A362E36A43F00103E36223684D
:10050000D3F804C02CF4694C4CEA010CC3F804C0C5
:1005100021688B68DFF870C003EA0C0313438B601B
:10052000A168B9420BD0012909D00CE0DFF85CC00A
:10053000A3690CEB43330B4343F40061DFE7218AEB
:100540000D05A5F580152168CB6A23F470032B43B4
:10055000CB62216889680E4B1940914208D1E6624E
:10056000A16A21F0020141F00101A162BDE8F08120
:10057000A06A20F0020040F01000A062E06A40F0A3
:100580000100E0620120F1E7FDF7E1FF00E0FFFF7D
:10059000FE0E1FFF00B585B0002100910191029170
:1005A000039100680E49884218D10E48816941F4D0
:1005B00000718161816901F400710491816941F0E8
:1005C000040181618069694600F004000490042000
:1005D000009003200190044800F098F805B000BD99
:1005E00000240140001002400008014070B504469C
:1005F00090F8240001280DD0012084F82400204622
:10060000FFF772FE02004FF0000005D084F82400CE
:10061000104670BD022070BDA16A40F201239943CB
:1006200041F48071A1621F4D23681F49AB4218D16C
:100630000E6816F4702F14D0A66A46F48016A662CF
:100640000E68760505D5A66A26F4005646F480564F
:10065000A662A66AF6040AD5E66A26F00606E662EF
:1006600006E0A66A26F48016A6625E68E9E7E06204
:1006700084F824006FF00200186020688368C3F3D8
:100680004243072B05D1A84208D1096811F4702F05
:1006900004D0816841F480118160B9E7816841F438
:1006A000A001F9E7002801400424014010B50446E8
:1006B00090F82400012807D0012084F82400204667
:1006C000FFF7E6FD10B107E0022010BDA16A21F49A
:1006D000885141F00101A162002184F8241010BD6D
:1006E000012803D102490888401C08807047000097
:1006F00000000020044910B50A68024202D00860D8
:10070000FFF7EEFF10BD0000140401402DE9F84F83
:10071000DFF8B8910024A9F1040B23460F2709F153
:10072000040AABF1040EC9E00125A5402A40AA4203
:100730007DD1674ED1F804C0ACEB0608B44532D089
:1007400014DCBCF1030F3AD009DCBCF1000F2AD055
:10075000BCF1010F1CD0BCF1020F31D11DE0BCF186
:10076000110F17D0BCF1120F2AD119E0B8F5881F6C
:1007700019D006DCB8F5803F15D0B8F5801F1FD121
:1007800011E0B8F5001F0ED0B8F5041F18D10AE02B
:10079000CB6815E0CB681B1D12E0CB6808330FE077
:1007A000CB680C330CE08B682BB1012B4FF00803A6
:1007B00003D0456104E0042302E0056100E000236A
:1007C000FF2A01D8064601E000F104064FEA84053D
:1007D00001D9A5F12005D6F8008007FA05FC28EA22
:1007E0000C0803FA05F548EA0508C6F800804D68CC
:1007F000ED0062D5374DAE6946F00106AE61AD69D8
:1008000024F0030605F001050095334D06EB050CB9
:10081000DCF80850A607360F07FA06F825EA08059F
:10082000DFF8B880404503D14FF0000817E044E0FE
:10083000DFF8AC80404502D14FF001080FE0DFF84F
:10084000A480404502D14FF0020808E0DFF898800C
:10085000404502D14FF0030801E04FF0040808FAC8
:1008600006F848EA0508CCF808804D68D9F8006019
:10087000ED024D4601D5164300E096432E604D68CB
:10088000DAF80060AD02554601D5164300E0964304
:100890002E604D68DBF80060AD035D4601D5164360
:1008A00000E096432E604D68DEF80060ED0375466B
:1008B00001D5164300E096432E60641C0D682A465D
:1008C000E5407FF431AFBDE8F88F00000804014037
:1008D000000011100010024000000140000801401B
:1008E000000C0140001001400014014080680840E5
:1008F00000D0012070470AB1016170470904FBE78D
:1009000001488068704700000C00002002488168A0
:1009100002781144816070470C000020074810B530
:10092000016841F010010160032000F075F80F200C
:1009300000F006F800F024F8002010BD002002406E
:1009400070B50D4D04464FF47A712878B1FBF0F084
:100950000A490968B1FBF0F000F032FB48B9102CED
:1009600007D200222146501E00F036F800206C60AD
:1009700070BD012070BD00000C0000201800002098
:100980000C4808B5816941F001018161816901F07C
:1009900001010091C16941F08051C161C06900F05D
:1009A000805000900448416821F0E06141F00071FE
:1009B000416008BD0010024000000140002809DB32
:1009C00000F01F02012191404009800000F1E02069
:1009D000C0F8001170470000F0B40E4B1B680C46C5
:1009E000C3F30223C3F10705042D00D90425191D03
:1009F000072901D2002300E0DB1E012606FA05F1DB
:100A0000491E214099409E40761E16403143F0BC5D
:100A100000F056BF0CED00E0064900F00702086840
:100A20004FF6FF03184040EA0220034A10430860D3
:100A3000704700000CED00E00000FA052DE9F843D6
:100A400005460078354CC00754D0E0690026C00048
:100A500008D4E06940F08050E061E069012600F0D0
:100A6000805000902E480168C90512D40168804664
:100A700041F480710160FFF743FF074605E000BFC6
:100A8000FFF73EFFC01B642823D8D8F80000C0053C
:100A9000F6D5206A10F4407021D0A98801F4407185
:100AA00081421CD0206A1F49012220F440700A6054
:100AB00000220A602062C00711D0FFF721FF07461D
:100AC00041F2883808E000BFFFF71AFFC11B41451B
:100AD00002D90320BDE8F883206A8007F4D5206A94
:100AE000696820F44070084320621EB1E06920F07C
:100AF0008050E0612878800705D56068A96820F4F7
:100B00004040084360602878C00605D56068E96801
:100B100020F48000084360600020DBE70010024002
:100B200000700040400442422DE9F0470F460500A6
:100B300061D0434E306800F00700B84209D23068F7
:100B400020F0070038433060306800F00700B842FA
:100B500051D128683B4C810712D5400703D5606806
:100B600040F4E06060602878000703D5606840F4D6
:100B7000605060606068A96820F0F0000843606021
:100B80002878C00728D06868012810D0216802287A
:100B900010D0890700292EDA616821F00301014392
:100BA0006160FFF7ADFE804641F288390DE02168B3
:100BB0008903EFE78901EDE7FFF7A2FEA0EB08014B
:100BC000494502D90320BDE8F0876068696800F0F4
:100BD0000C00B0EB810FEFD1306800F00700B84295
:100BE0000BD9306820F0070038433060306800F0DF
:100BF0000700B84201D00120E5E72878400705D575
:100C00006068E96820F4E0600843606028780007C5
:100C100006D56068296920F4605040EAC100606030
:100C200000F018F86168084AC1F30311515CC8402C
:100C30000649086006480068FFF782FE0020C2E708
:100C40000020024000100240861900081800002011
:100C5000100000200E4A51680E4801F00C03042BCE
:100C600011D0082B0FD10C48C1F38343C903C05CDA
:100C70000AD55168084AC1F34041921E515C054AA9
:100C80005043B0FBF1F070470449484370470000FF
:100C90000010024000127A007619000800093D0099
:100CA0002DE9F84F040070D02078C04DC00749D01E
:100CB0006868C0F38100012807D06868C0F381002C
:100CC000022809D16868C00306D52868800339D591
:100CD00060680028E7D035E06068B0F5803F0BD051
:100CE00010B1B0F5A02F11D0286820F48030286012
:100CF000286820F4802002E0286840F480302860D2
:100D0000606890B1FFF7FCFD06460AE0286840F4F1
:100D100080202860F0E700BFFFF7F2FD801B642809
:100D200073D828688003F7D50CE0FFF7E9FD064685
:100D300005E000BFFFF7E4FD801B6428F0D82868B9
:100D40008003F7D420789A4E80074FF001094FF0C6
:100D5000000839D5686810F00C0F07D06868C0F338
:100D60008100022809D16868C00306D4286880077A
:100D700014D52069012808D110E02069B0B1C6F867
:100D80000090FFF7BDFD074605E00AE1FFF7B8FD5B
:100D9000C01B0228C4D828688007F7D52868616975
:100DA00020F0F80040EAC10028600DE0C6F800809D
:100DB000FFF7A6FD074604E0FFF7A2FDC01B0228CF
:100DC00023D828688007F7D4207800072CD57948E5
:100DD000A169D9B1C0F80090FFF792FD074604E081
:100DE000FFF78EFDC01B02280FD8686A8007F7D571
:100DF00071484FF4FA510068B0FBF1F0009000BF69
:100E00000098411E0091FAD20EE080E0C0F8008008
:100E1000FFF776FD074604E0FFF772FDC01B0228CE
:100E200075D8686A8007F7D42078400760D5E869EC
:100E30000027C00008D4E86940F08050E861E86904
:100E4000012700F0805000905C480168C90513D468
:100E50000168834641F480710160FFF751FD8246CD
:100E600006E000BFFFF74CFDA0EB0A0064284ED857
:100E7000DBF80000C005F5D5E06801280AD008B10C
:100E8000052813D0286A20F001002862286A20F083
:100E9000040002E0286A40F001002862E06841F2A4
:100EA000883B98B1FFF72CFD82460BE0286A40F0A2
:100EB00004002862EEE700BFFFF722FDA0EB0A0165
:100EC00059455AD8286A8007F6D50CE0FFF718FD77
:100ED000824605E0FFF714FDA0EB0A0159454CD806
:100EE000286A8007F6D41FB1E86920F08050E861D5
:100EF000E06988B36968C1F38101022944D00228FE
:100F0000C6F8608004D0FFF7FBFC044638E034E00C
:100F1000FFF7F6FC074604E0FFF7F2FCC01B0228CF
:100F20002BD828688001F7D4206AB0F5803F05D11E
:100F30006868A16820F4003008436860D4E90801BB
:100F40000843696821F4741108436860C6F860902A
:100F5000FFF7D6FC044606E025E000BFFFF7D0FC13
:100F6000001B022809D828688001F7D51BE000BFC4
:100F7000FFF7C6FC001B022802D90320BDE8F88F4A
:100F800028688001F4D40EE00128F7D06868226A4E
:100F900000F48031914204D1616A00F470108842FB
:100FA00001D00120EAE70020E8E70000001002403D
:100FB00000004242800442421800002000700040BD
:100FC00010B5401EB0F1807F01D3012010BD4FF05D
:100FD000E02460610F21601700F072FC0020A06126
:100FE00007202061002010BD10B590F83C20012A98
:100FF00022D0012280F83C20CA688C6822F440721A
:1010000022434C6822F4806222430C6822F400627E
:1010100022430C6922F4805222434C6922F400528C
:101020002243C969002322F480420A4301684A64CA
:1010300080F83C30002010BD022010BD70B590F843
:101040003C20012A26D0012480F83C40022280F86E
:101050003D2003685A689D6822F070060A68324392
:101060005A600D4B02689A4208D0B2F1804F05D009
:101070000A4B9A4202D00A4B9A4204D1496825F0A1
:1010800080031943916080F83D40002180F83C10B6
:10109000084670BD022070BD002C014000040040D5
:1010A0000008004010B5040003D094F83D0010B1D2
:1010B00007E0012010BD002084F83C00204600F02D
:1010C0001FF8022084F83D00211D206800F0DCFAA2
:1010D000012084F8460084F83E0084F83F0084F83C
:1010E000400084F8410084F8420084F8430084F80A
:1010F000440084F8450084F83D00002010BD000045
:1011000008B500680649884208D10648816941F45B
:1011100000618161806900F40060009008BD0000FA
:10112000002C01400010024070B5044690F83C00CD
:101130000025012817D0012684F83C60022084F89D
:101140003D002068826822F0770222F47F428260AC
:101150000868502838D00DDC20284FD005DC90B32B
:10116000102811D14AE0022070BD302846D0402816
:101170000AD13BE060282FD070280DD0B0F5805FF9
:1011800003D0B0F5005F12D0012584F83D60002047
:1011900084F83C00284670BDCB68D1E90121206865
:1011A00000F0B5FA2068816841F0770109E0CB686A
:1011B000D1E90121206800F0AAFA2068816841F491
:1011C00080418160E1E719E0CA684968206800F061
:1011D00053FB5021206806E0CA684968206800F087
:1011E0005CFB6021206800F09CFACEE7CA68496881
:1011F000206800F041FB40212068F4E722680146A6
:101200001046F0E700B585B00021009101910291F0
:10121000039100680B49884212D10B48816941F063
:10122000040181618069694600F0040004904FF474
:10123000807000900220019003900448FFF766FA46
:1012400005B000BD002C0140001002400008014024
:1012500070B5044690F83C0000260D4601280FD0DA
:10126000012084F83C006AB1042A1DD0082A2FD03E
:101270000C2A3FD00126002084F83C00304670BD87
:10128000022070BD206800F055FA2068816941F0A5
:10129000080181612068816921F004018161206871
:1012A00081692A69114311E0206800F06BFA206817
:1012B000816941F4006181612068816921F4806164
:1012C0008161206881692A6941EA02218161D2E74E
:1012D000206800F083FA2068C16941F00801C1610B
:1012E0002068C16921F00401C1612068C1692A69CF
:1012F000114311E0206800F09DFA2068C16941F4B3
:101300000061C1612068C16921F48061C161206808
:10131000C1692A6941EA0221C161ACE710B5040044
:1013200003D094F83D0010B107E0012010BD00206B
:1013300084F83C00204600F01EF8022084F83D00AE
:10134000211D206800F0A0F9012084F8460084F8EF
:101350003E0084F83F0084F8400084F8410084F89F
:10136000420084F8430084F8440084F8450084F87F
:101370003D00002010BD704710B50446022249B15F
:1013800004290ED0082913D094F84100012816D062
:10139000012010BD94F83E000128F9D184F83E20C8
:1013A0000FE094F83F000128F2D184F83F2008E0D4
:1013B00094F840000128EBD184F8402001E084F843
:1013C00041200122206800F095F90F4920688842E9
:1013D00003D1426C42F4004242642068884208D043
:1013E000B0F1804F05D00949884202D008498842AF
:1013F00004D1816801F00701062903D0016841F09A
:1014000001010160002010BD002C014000040040DB
:1014100000080040FEE700003EB50024114800949B
:10142000019402940E4984600160047304750125DF
:1014300005614FF460214460C161FFF71DF808B1F8
:1014400072B6FEE70220CDE9000569460294054820
:10145000FEF790FF002801D072B6FEE73EBD000007
:10146000002401401C00002070B586B000242948EB
:101470000094019402940394816941F01001816108
:10148000816901F010010491816941F020018161BD
:10149000816901F020010491816941F004018161B9
:1014A00080691D4E00F004004FF4005504900022A6
:1014B00029463046FFF71FFA0220CDE90240009589
:1014C0000125694601953046FFF720F90320009079
:1014D0001248CDE90105124E69463046FFF716F96C
:1014E00020208DE8310069463046FFF70FF90022D1
:1014F00011460620FFF770FA0620FFF75FFA002278
:1015000011460720FFF768FA0720FFF757FA06B0E1
:1015100070BD0000001002400010014000002110CA
:101520000008014010B596B000240F941094119457
:10153000129413941C2108A81494FEF745FE202150
:101540006846FEF741FE2848264901603F21C0E970
:10155000011440F2FF31C0E9031444618461FFF7D4
:10156000A1FD08B172B6FEE74FF480500F900FA9AD
:101570001D48FFF7D9FD08B172B6FEE71A48FFF71C
:10158000CDFE08B172B6FEE7139413A91648149461
:10159000FFF754FD08B172B6FEE76020CDE90804FC
:1015A0000A940B940C940D94002208A90E480E94F2
:1015B000FFF74EFE08B172B6FEE700944FF40050FC
:1015C000CDE90440029401940394694606480794C7
:1015D000FFF70AFD08B172B6FEE70348FFF712FEF7
:1015E00016B010BD002C01404C000020FEE7FEE7C5
:1015F000064940F6BA728868C0EB8020B0FBF2F072
:1016000080B24880024909684863704700000020A2
:101610004C00002070477047FFF778B930B593B0A1
:1016200028216846FEF7D0FD14210AA8FEF7CCFD5C
:10163000002401200F94022504900095102011949D
:1016400005901094129407946846FFF729FB08B19F
:1016500072B6FEE70F20CDE90A040C940D94002128
:101660000AA80E94FFF760FA08B172B6FEE70FA859
:101670000F951194FFF7E2F9002801D072B6FEE74A
:1016800013B030BD70470000F0B50268164B174C20
:10169000174D4FF08047984205D0B84203D0A04282
:1016A00001D0A84203D122F070064A683243984222
:1016B00005D0B84203D0A04201D0A84203D122F401
:1016C0004074CA6822434C6922F0800222430260BF
:1016D0008A68C2620A688262984201D1096901631C
:1016E00001214161F0BD0000002C014000040040D8
:1016F0000008004010B501F01F030121046A994061
:101700008C430462016A9A401143016210BD10B516
:10171000846842EA032224F47F440A43224382601D
:1017200010BD826822F070020A4342F00701816016
:101730007047000030B5036A026A22F001020262BB
:101740004268846924F073050C682C4323F0020579
:101750008B682B430A4DA8420BD123F00805CB68B8
:1017600022F440722B434D6923F0040315438A6928
:101770002A434260846149684163036230BD0000CE
:10178000002C014030B5026A036A23F010030362A3
:10179000436884690D6824F4E64444EA05248D68AE
:1017A00022F0200242EA05120B4DA8420ED1CD686C
:1017B00022F0800242EA05124D6923F4406343EAB5
:1017C00085038D6922F0400243EA8503436084610A
:1017D00049688163026230BD002C014030B5036A64
:1017E000026A22F4807202624268C46923F40073C0
:1017F00024F073050C682C438D6843EA05230C4DD7
:10180000A8420ED1CD6823F4006343EA05234D6955
:1018100022F4405242EA05128D6923F4806342EAC1
:1018200005124260C4614968C163036230BD0000B3
:10183000002C014030B5046A026A22F48052026230
:101840004268C3690D6823F4E64343EA05238D68C3
:1018500024F4005444EA0534064DA84204D14D69ED
:1018600022F4804242EA85124260C3614968016401
:10187000046230BD002C014010B5036A046A24F0F4
:1018800001040462846924F0F00444EA021423F0A1
:101890000A020A438461026210BD10B5036A046A39
:1018A00024F010040462846923F0A00324F470443B
:1018B00044EA023243EA01118261016210BDFEE78F
:1018C0000907090E002804DB00F1E02080F800146D
:1018D000704700F00F0000F1E02080F8141D704701
:1018E000FFF71CF8FFF79AFEFFF7BEFDFFF794FD28
:1018F000FFF718FE00211C48FFF73EFD1B4D1A4F55
:101900001B4C4FF00109002640F2FF3816483038D2
:10191000FEF76CFE14483038FEF7AAFDA0601248AE
:101920003038FEF7C3FE2078C00702D0FFF760FE14
:10193000ECE720212846FEF7D9FF08B9606868B1B6
:1019400020212846FEF7D2FF0028DFD16068012859
:10195000DCD13968C1F834806660D7E738684663FF
:10196000C4F80490D2E700004C00002000080140B9
:1019700000000020010202030405060708090A0B03
:101980000C0D0E0F101000000000000000000102FE
:101990000304060708090000B81900080000002029
:1019A0001C00000028010008D41900081C000020B9
:1019B000DC060000440100080000000000000000F8
:1019C0000000000001000000100000000000000006
:0419D0000024F400FB
:04000005080000ED02
:00000001FF
